{
  "contractName": "Notary139",
  "abi": [
    {
      "inputs": [],
      "name": "newContract",
      "outputs": [
        {
          "internalType": "string",
          "name": "content",
          "type": "string"
        },
        {
          "internalType": "string",
          "name": "contractStatus",
          "type": "string"
        }
      ],
      "stateMutability": "view",
      "type": "function"
    },
    {
      "inputs": [],
      "name": "getContent139",
      "outputs": [
        {
          "internalType": "string",
          "name": "",
          "type": "string"
        }
      ],
      "stateMutability": "view",
      "type": "function"
    },
    {
      "inputs": [
        {
          "internalType": "string",
          "name": "newwords",
          "type": "string"
        }
      ],
      "name": "setContent139",
      "outputs": [],
      "stateMutability": "nonpayable",
      "type": "function"
    },
    {
      "inputs": [],
      "name": "getContractStatus139",
      "outputs": [
        {
          "internalType": "string",
          "name": "",
          "type": "string"
        }
      ],
      "stateMutability": "view",
      "type": "function"
    },
    {
      "inputs": [
        {
          "internalType": "string",
          "name": "newStatus",
          "type": "string"
        }
      ],
      "name": "setContractStatus139",
      "outputs": [],
      "stateMutability": "nonpayable",
      "type": "function"
    }
  ],
  "bytecode": "0x608060405234801561001057600080fd5b50610907806100206000396000f3fe608060405234801561001057600080fd5b50600436106100575760003560e01c80634313b5311461005c57806354b25a661461007b5780638ac7c81a14610097578063bbe7f4bd146100b3578063d388cab7146100d1575b600080fd5b6100646100ef565b6040516100729291906103fe565b60405180910390f35b6100956004803603810190610090919061057e565b610211565b005b6100b160048036038101906100ac919061057e565b610226565b005b6100bb61023c565b6040516100c891906105c7565b60405180910390f35b6100d96102d0565b6040516100e691906105c7565b60405180910390f35b600080600001805461010090610618565b80601f016020809104026020016040519081016040528092919081815260200182805461012c90610618565b80156101795780601f1061014e57610100808354040283529160200191610179565b820191906000526020600020905b81548152906001019060200180831161015c57829003601f168201915b50505050509080600101805461018e90610618565b80601f01602080910402602001604051908101604052809291908181526020018280546101ba90610618565b80156102075780601f106101dc57610100808354040283529160200191610207565b820191906000526020600020905b8154815290600101906020018083116101ea57829003601f168201915b5050505050905082565b8060008001908161022291906107ff565b5050565b806000600101908161023891906107ff565b5050565b606060008001805461024d90610618565b80601f016020809104026020016040519081016040528092919081815260200182805461027990610618565b80156102c65780601f1061029b576101008083540402835291602001916102c6565b820191906000526020600020905b8154815290600101906020018083116102a957829003601f168201915b5050505050905090565b6060600060010180546102e290610618565b80601f016020809104026020016040519081016040528092919081815260200182805461030e90610618565b801561035b5780601f106103305761010080835404028352916020019161035b565b820191906000526020600020905b81548152906001019060200180831161033e57829003601f168201915b5050505050905090565b600081519050919050565b600082825260208201905092915050565b60005b8381101561039f578082015181840152602081019050610384565b838111156103ae576000848401525b50505050565b6000601f19601f8301169050919050565b60006103d082610365565b6103da8185610370565b93506103ea818560208601610381565b6103f3816103b4565b840191505092915050565b6000604082019050818103600083015261041881856103c5565b9050818103602083015261042c81846103c5565b90509392505050565b6000604051905090565b600080fd5b600080fd5b600080fd5b600080fd5b7f4e487b7100000000000000000000000000000000000000000000000000000000600052604160045260246000fd5b61048b826103b4565b810181811067ffffffffffffffff821117156104aa576104a9610453565b5b80604052505050565b60006104bd610435565b90506104c98282610482565b919050565b600067ffffffffffffffff8211156104e9576104e8610453565b5b6104f2826103b4565b9050602081019050919050565b82818337600083830152505050565b600061052161051c846104ce565b6104b3565b90508281526020810184848401111561053d5761053c61044e565b5b6105488482856104ff565b509392505050565b600082601f83011261056557610564610449565b5b813561057584826020860161050e565b91505092915050565b6000602082840312156105945761059361043f565b5b600082013567ffffffffffffffff8111156105b2576105b1610444565b5b6105be84828501610550565b91505092915050565b600060208201905081810360008301526105e181846103c5565b905092915050565b7f4e487b7100000000000000000000000000000000000000000000000000000000600052602260045260246000fd5b6000600282049050600182168061063057607f821691505b602082108103610643576106426105e9565b5b50919050565b60008190508160005260206000209050919050565b60006020601f8301049050919050565b600082821b905092915050565b6000600883026106ab7fffffffffffffffffffffffffffffffffffffffffffffffffffffffffffffffff8261066e565b6106b5868361066e565b95508019841693508086168417925050509392505050565b6000819050919050565b6000819050919050565b60006106fc6106f76106f2846106cd565b6106d7565b6106cd565b9050919050565b6000819050919050565b610716836106e1565b61072a61072282610703565b84845461067b565b825550505050565b600090565b61073f610732565b61074a81848461070d565b505050565b5b8181101561076e57610763600082610737565b600181019050610750565b5050565b601f8211156107b35761078481610649565b61078d8461065e565b8101602085101561079c578190505b6107b06107a88561065e565b83018261074f565b50505b505050565b600082821c905092915050565b60006107d6600019846008026107b8565b1980831691505092915050565b60006107ef83836107c5565b9150826002028217905092915050565b61080882610365565b67ffffffffffffffff81111561082157610820610453565b5b61082b8254610618565b610836828285610772565b600060209050601f8311600181146108695760008415610857578287015190505b61086185826107e3565b8655506108c9565b601f19841661087786610649565b60005b8281101561089f5784890151825560018201915060208501945060208101905061087a565b868310156108bc57848901516108b8601f8916826107c5565b8355505b6001600288020188555050505b50505050505056fea26469706673582212201291a083d98bf81d21b38bd7cfbe6a6297764269aad1bd48df0e50ce1a6451a464736f6c634300080f0033",
  "immutableReferences": {},
  "source": "// SPDX-License-Identifier: MIT\r\n\r\npragma solidity >=0.7.0 <0.9.0;\r\n\r\ncontract Notary139 {\r\n    struct storedContract {\r\n        string content;\r\n        string contractStatus;    \r\n    }\r\n\r\n    storedContract public newContract;\r\n\r\n    function getContent139() public view returns (string memory) {\r\n        return newContract.content;\r\n    }\r\n\r\n    function setContent139(string memory newwords) public {\r\n        newContract.content = newwords;   \r\n    }\r\n\r\n    function getContractStatus139() public view returns (string memory) {\r\n        return newContract.contractStatus;\r\n    }\r\n\r\n    function setContractStatus139(string memory newStatus) public {\r\n        newContract.contractStatus = newStatus;   \r\n    }\r\n}\r\n",
  "sourcePath": "D:\\Blokchain Course\\truffle_ipfs\\contracts\\Notary139.sol",
  "compiler": {
    "name": "solc",
    "version": "0.8.15+commit.e14f2714.Emscripten.clang"
  },
  "schemaVersion": "3.4.8",
  "updatedAt": "2022-07-31T14:20:31.456Z",
  "devdoc": {
    "kind": "dev",
    "methods": {},
    "version": 1
  },
  "userdoc": {
    "kind": "user",
    "methods": {},
    "version": 1
  }
}